:020000040800F2
:1000000070B3002049030008F76D00088D51000807
:10001000F56D000819280008997F0008000000000D
:10002000000000000000000000000000890200083D
:10003000D933000800000000E5020008E57600085A
:1000400063030008630300086303000863030008F8
:1000500063030008630300086303000863030008E8
:1000600063030008DB330008E13300086303000882
:100070005D310008630300086303000863030008A0
:1000800063030008630300086303000863030008B8
:10009000630300086303000863030008E7330008F4
:1000A0006303000863030008630300086303000898
:1000B000B1770008630300086303000863030008C6
:1000C0006303000863030008630300086303000878
:1000D000630300086303000863030008497F000806
:1000E0006303000863030008630300086303000858
:1000F0006303000863030008630300086303000848
:100100006303000863030008630300086303000837
:100110006303000863030008630300086303000827
:1001200069310008630300086303000863030008E3
:100130006303000863030008630300086303000807
:1001400063030008630300086303000863030008F7
:1001500063030008630300086303000863030008E7
:1001600063030008630300086303000863030008D7
:100170006303000863030008630300080000000035
:10018000630300086303000800F002F800F06DF854
:100190000AA090E8000C82448344AAF10107DA45E2
:1001A00001D100F062F8AFF2090EBAE80F0013F0C7
:1001B000010F18BFFB1A43F001031847E8B2000013
:1001C00008B300000A444FF0000C10F8013B13F094
:1001D000070408BF10F8014B1D1108BF10F8015BA0
:1001E000641E05D010F8016B641E01F8016BF9D193
:1001F00013F0080F1EBF10F8014BAD1C0C1B09D1EA
:100200006D1E58BF01F801CBFAD505E014F8016B5B
:1002100001F8016B6D1EF9D59142D6D370470000ED
:100220000023002400250026103A28BF78C1FBD8FF
:10023000520728BF30C148BF0B60704766290AF0DB
:100240008B83002070471FB50AF0D2FA9DE80300A7
:1002500001F03AF801F0DAFA0400002000210AF077
:10026000F1F8E0601FBD10B510BD01F009FC1146AA
:10027000FFF7E9FF08F0A0FB01F027FC03B4FFF74C
:10028000F2FF03BC01F09EFC2C4B19680868B0E833
:10029000F04F80F30988BFF36F8F4FF0000080F3B9
:1002A000118870470000000008480068006880F36B
:1002B00008884FF0000080F3148862B661B6BFF37F
:1002C0004F8FBFF36F8F00DF00BF00BF08ED00E06E
:1002D000DFF80C00016841F470010160704700BF55
:1002E00088ED00E0EFF30980BFF36F8F134B1A68BE
:1002F0001EF0100F08BF20ED108A20E9F04F1060AB
:1003000009B44FF0500080F31188BFF34F8FBFF353
:100310006F8F09F069FB4FF0000080F3118809BC72
:1003200019680868B0E8F04F1EF0100F08BFB0EC75
:10033000108A80F30988BFF36F8F70471C0200207A
:10034000EFF30580704700000948804709480047DF
:10035000FEE7FEE7FEE7FEE7FEE7FEE7FEE7FEE775
:10036000FEE7FEE704480549054A064B70470000D2
:1003700095770008890100087073002070B3002091
:1003800070930020709300209FED1A1AF5EE000A7A
:1003900040EE010ABDEEE00AF5EEC00A10EE100ACA
:1003A000F1EE10FA38BF401E00EE100A1349F7EEC6
:1003B000001AB8EEC00A30EEC00ADFED0F0A20EED8
:1003C000200AFCEEC00A10EE900AC0F3080000EE0E
:1003D000900A01EB8000F8EE600A90ED011A70EED1
:1003E000600A90ED000A71EEE01A21EE800A00EE3C
:1003F000810A704783F9223E00000044DCAB00080C
:10040000B5EEC00AF1EE10FA07D2DFED1E0AB4EE27
:10041000E00AF1EE10FAA8BF7047DFED1B0AB5EE57
:10042000C00A60EE200ABDEEE01A11EE100AF1EEED
:1004300010FA38BF401E00EE100A1549F7EE001AF8
:10044000B8EEC00A30EEC00ADFED100A60EE200AF6
:10045000BCEEE00A10EE100AC0F3080000EE100A2D
:1004600001EB8000B8EE400A90ED011A70EEC00A70
:1004700090ED000A71EEE01A21EE800A00EE810A8A
:1004800070470000CD024CB483F9223E00000044C6
:10049000DCAB000870B405880E884468D1F804C04D
:1004A0005368B54208D140884988884201BF118805
:1004B0008D425188884203D070BC6FF002007047B3
:1004C00005FB00F1880827D094ED001ADCED000A46
:1004D00094ED010ADCED011A31EE201AD4ED020A86
:1004E00070EE211A9CED020A83ED001AC3ED011A89
:1004F00094ED031ADCED031A30EE800A401E71EE13
:10050000210A83ED020A04F11004C3ED030A03F18A
:1005100010030CF1100CD7D111F0030030D0B0F162
:10052000004F30D200282BDD211F1B1FACF104022D
:1005300010F0010F0AD091ED010AD2ED010A091D58
:10054000121D30EE200A83ED010A1B1D400817D052
:1005500091ED010AD2ED010A401E30EE200A83ED32
:10056000010A91ED020AD2ED020A01F1080102F13D
:10057000080230EE200A83ED020A03F10803E7D1F6
:1005800070BC00207047B4EC010A401EFCEC010A6C
:1005900030EE200AA3EC010AF5D1F1E70180428098
:1005A000436070472DE9F34F84B004984068009091
:1005B000486801900498B0F800E04588DFEDFE0A35
:1005C00000200290B0EE600AAE4506D10888498846
:1005D000884204BF7146864504D06FF0020006B021
:1005E000BDE8F08F01985FEA010C18BFB7EE001A62
:1005F0003DD000BFBEEB0C0117D0B1F1004F80F031
:100600001F82002911DD021F11F0010F1CBFC2ED76
:10061000010A121D4B1006D0C2ED010AC2ED020AFA
:1006200008325B1EF8D100EB8100BCF10102A0ECA6
:10063000011A19D0B2F1004F80F00882002A13DDB0
:10064000031F12F0010F1CBFC3ED010A1B1D511047
:1006500008D000BFC3ED010AC3ED020A491E03F131
:100660000803F7D100EB8200BCF1010CC2D14FF0BE
:1006700000080395002D14BFB0EE602A002000F0A2
:10068000BF8100BF009908FB05F001EB800B0199C9
:10069000DBED002A01EB80000346F0EE421AC6456E
:1006A00052D9AEEB0802ABEB850112F0010F17D067
:1006B00001EB850191ED000AB5EEC00AF1EE10FAEA
:1006C00007DDB4EEE10AF1EE10FA09DDF0EE401AB2
:1006D00006E0B1EE400AF4EEC01AF1EE10FAF5D3DE
:1006E000521031D001EB850C9CED000AB5EEC00A2A
:1006F000F1EE10FA05DDB4EEE10AF1EE10FA09DDD3
:1007000006E0B1EE400AF4EEC01AF1EE10FA01D2A2
:10071000F0EE401A01EBC50191ED000AB5EEC00AFA
:10072000F1EE10FA05DDB4EEE10AF1EE10FA09DDA2
:1007300006E0B1EE400AF4EEC01AF1EE10FA01D272
:10074000F0EE401A521ECDD1F5EEC01AF1EE10FABD
:1007500000F07381F5EEC02A0126F1EE10FA00993F
:10076000D4BFB1EE620AB0EE620AB4EE610AF1EEF5
:1007700010FA1CBFAEEB0802B2F1010C47D005FB2A
:1007800008F201EB820292ED001A00BFB0EE410ABE
:1007900005FB06F4B5EEC00A00EB8404F1EE10FA96
:1007A000CCBFF0EE400AF1EE400AF4EE610AF1EE41
:1007B00010FA28D1B5EB080C11D0BCF1004F7DD256
:1007C000BCF1000F0BDD00BF92ED000AD1ED000A75
:1007D000BCF1010CE2EC010AA1EC010AF4D1290000
:1007E0000ED0B1F1004F6AD2002909DD94ED000A64
:1007F000D0ED000A491EE4EC010AA0EC010AF5D193
:10080000012002900BE0761CBCF1010CBED10298D5
:10081000012804D0F5EEC02AF1EE10FA7ED09BED4F
:10082000000AB5EB08009A465946064622D0B0F1B8
:10083000004F74D200281DDD091F10F0010F06D0F3
:10084000F0EE400A80EEA01A81ED011A091D401059
:1008500010D000BFD1ED010A401E80EE801A81ED5C
:10086000011A91ED021AC1EE000AC1ED020A01F16E
:100870000801EFD1280026D0B0F1004F7ED2002829
:1008800021DDAAF1040110F0010F06D0D1ED010A1B
:1008900080EE801A81ED011A091D401013D000BFAF
:1008A000D1ED010A401E80EE801A81ED011AD1EDD2
:1008B000020A80EE801A81ED021A01E0CBE0D6E058
:1008C00001F10801ECD1DDE900124FF000095FEA07
:1008D0000E0773D0C14504BF01EB860102EB850210
:1008E00074D091ED000ADC465046331E35D01C46CC
:1008F000B6F1004F7ED2002C2FDD0B1FABF1040CA4
:1009000016F0010F0FD0F0EE400ADCED011AB0EE48
:10091000601A00EEE11A83ED011A01E08DE0B1E00A
:100920001B1D0CF1040C741015D000BFD3ED010A8F
:100930009CED011A40EE410AC3ED010AD3ED020A13
:100940009CED021A0CF1080C40EE410AC3ED020ABC
:100950000833641EEAD101EB86012B0036D0B3F1D7
:10096000004F72D2002B31DDA2F1040CAAF1040079
:1009700013F0010F0CD0DCED010A00E08BE090EDEC
:10098000011A001D40EE410ACCED010A0CF1040CE5
:100990005C1019D0DCED010A90ED011A40EE410A1D
:1009A000CCED010ADCED020A90ED021A083040EEAF
:1009B000410ACCED020A03E0000000000DE005E072
:1009C000641E0CF1080CE5D102EB830201EB8801F7
:1009D0007F1E09F101097FF47DAF009808F101083D
:1009E000001D00900398401E03907FF44BAE0299C7
:1009F000012900E058E004BF06B0BDE8F08F00BF59
:100A0000B5EEC00AF1EE10FA7FF4E9AD04990EFBE1
:100A100005F3002B4A684FF000010BD902EB810C63
:100A20009CED000AB5EEC00AF1EE10FA02D1491CA5
:100A30008B42F3D88B427FF4D2AD6FF00400CEE549
:100A4000E0EC010A491EFBD1EFE538E0E0EC010AD9
:100A5000521EFBD108E692ED000AD1ED000ABCF16E
:100A6000010CE2EC010AA1EC010AF4D1B7E694ED25
:100A7000000AD0ED000A491EE4EC010AA0EC010ACC
:100A8000F5D1BDE6D1ED000A401E80EE801AA1EC42
:100A9000011AF7D1EEE6D3ED000A401E80EE801A6F
:100AA000A3EC011AF7D10EE7BCEC011AD1ED000A54
:100AB0005B1E40EE410AE1EC010AF5D14DE7B0ECD6
:100AC000011AD2ED000A5B1E40EE410AE2EC010A77
:100AD000F5D17BE72DE9F04F82B04668536801936A
:100AE000058847884B88002000900888874201BF0E
:100AF000B2F800C06545528893421EBF6FF00200F5
:100B000002B0BDE8F08F9FED412A4FEA970EC7F380
:100B1000400B00BFDDE9000202EB800A4A689846FC
:100B20004FF00009B0EE420AB4465FEA0E0025D04D
:100B300092ED001ADCED001A02EB8302DCED010AF3
:100B400001EE810A92ED001A02EB8302401ED2ED03
:100B5000001A02EB830200EE810A9CED021ADCED22
:100B6000030A00040CF1100C000C01EE210A92EDB6
:100B7000001A02EB830200EE810AD9D117F00300BC
:100B800026D0ACF10404A2EB830210F0010F08D0D0
:100B900002EB8302D4ED010A92ED001A241D00EE4F
:100BA000810A5FEA0B0013D002EB830CD4ED010A3B
:100BB0009CED001A02EBC302401E00EE810AD4ED48
:100BC000020A92ED001A04F1080400EE810AEBD14A
:100BD00009F10100AAEC010A1FFA80F9486800EB4C
:100BE0008902A8F101001FFA80F8B8F1000F99D12D
:100BF000009806EB8706184480B20090681E050432
:100C00002D0C87D102B00020BDE8F08F000000005D
:100C100070B405880E884468D1F804C05368B542A2
:100C200008D140884988884201BF11888D42518887
:100C3000884203D070BC6FF00200704705FB00F1E2
:100C4000880827D094ED001ADCED000A94ED010A23
:100C5000DCED011A31EE601AD4ED020A70EE611A71
:100C60009CED020A83ED001AC3ED011A94ED031AFC
:100C7000DCED031A30EEC00A401E71EE610A83ED0E
:100C8000020A04F11004C3ED030A03F110030CF18E
:100C9000100CD7D111F0030030D0B0F1004F30D29A
:100CA00000282BDD211F1B1FACF1040210F0010FE7
:100CB0000AD091ED010AD2ED010A091D121D30EE94
:100CC000600A83ED010A1B1D400817D091ED010A4F
:100CD000D2ED010A401E30EE600A83ED010A91ED6B
:100CE000020AD2ED020A01F1080102F1080230EE17
:100CF000600A83ED020A03F10803E7D170BC00200B
:100D00007047B4EC010A401EFCEC010A30EE600AA8
:100D1000A3EC010AF5D1F1E72DE9F04F028847680D
:100D2000B0F802804888D1F8049082B04FF0000AF1
:100D30001646824207BF098888456FF0020002B05C
:100D400018BFBDE8F08F4FEA980B02EB420001900C
:100D5000C8F34000CDF8000009EB8A01BBF1000F99
:100D600033D0019801EB820C01EB80043B46E64650
:100D700001EBC2054FEA0B0093ED000A401E81ED26
:100D8000000A93ED010A01EB02118CED000A93EDCC
:100D9000020A0CEB021C85ED000A93ED030A05EB39
:100DA000021584ED000A04EB021403F11003E3D1F1
:100DB0000EEB820000EB820000EB8201ABF1010040
:100DC000504307EB0B1701EB001118F0030C21D077
:100DD0003B1FA1EB82011CF0010F06D093ED010A2D
:100DE00001EB82011B1D81ED000A009880B100BF5C
:100DF00093ED010A01EB820401EBC20184ED000ACC
:100E000093ED020A401E81ED000A03F10803EFD1C1
:100E100007EB8C070AF101001FFA80FA701E060426
:100E2000360C99D102B00020BDE8F08F70B50646AF
:100E300000F02EFA056806F10B0020F00704B4421A
:100E40009CBF002070BD2B466A68BAB11068A042F2
:100E500010D304F1080188423CBF5068586007D3A2
:100E60005168101941601168091B016058601460D5
:100E7000101D70BD13465268002AE7D1214628464E
:100E800000F00EFA0028DED170BD53EA020C00F02B
:100E900069802DE9F04B4FF00006002B1FBFB3FA1D
:100EA00083F503FA05F424FA05F65E4012BF1643F3
:100EB000B2FA82F502FA05F4C5F120051EBF22FA46
:100EC00005FC44EA0C04203556EA044C4FEA14446D
:100ED00018BF641C4FF000084FF00009904271EBFE
:100EE000030C39D3002919BFB1FA81F701FA07F6CB
:100EF000B0FA80F700FA07F6C7F120071EBF20FA04
:100F000007FC46EA0C062037B6FBF4FCA7EB050706
:100F1000103F07F01F0BCBF120060CFA0BFB2CFA4D
:100F200006F644BFB3460026202FA4BF5E464FF00E
:100F3000000B5BEA060C08BF4FF0010B19EB0B0925
:100F4000ABFB027C48EB0608C01B06FB02CC0BFB8C
:100F500003CC71EB0C01C1E70B4602464146484603
:100F6000BDE8F08B13B54FF000004FF00001AFF378
:100F70000080BDE81C4070470FB41CB50C0007AAE8
:100F8000009001D02044401E074B7B4469460190ED
:100F9000069800F016FC002C03D06946002000F0F3
:100FA00023FC1CBC5DF814FB650800002DE9F0472C
:100FB0004FF0000A89460446C0F820A02046E168A8
:100FC0008847002876D0252806D0D4E9012190470B
:100FD000206A401C2062F1E7E1682046002588472E
:100FE000C4F81CA006460027C4F818A02A2E09D071
:100FF000304607F08BFA38B304EB8708303EC8F868
:10100000186019E059F8041B204604EB870291612F
:10101000E1688847012F064618D1E069002820DAE8
:1010200025F020051DE0D8F8180000EB800006EB45
:1010300040003038C8F818002046E1688847064666
:1010400007F064FA0028EED1012F0AD02E2E08D125
:101050002046E16888477F1C0646022F45F02005A0
:10106000C4DBA069002803DA404245F00105A06115
:10107000E80701D025F01005B6B1A6F14100192806
:1010800002D8203645F400654A46314620462560A0
:101090004D46FFF7D3F858B1012806D0ED1D25F0D5
:1010A000070000F1080989E704E005F1040985E774
:1010B00030468AE7206ABDE8F08710B5431C02E09D
:1010C00010F8011B71B18107FAD14FF0013202C84B
:1010D0008C1A8C4314EAC211F9D0C01A0A0603D044
:1010E000C01E10BDC01A10BD0A0401D0801E10BD64
:1010F0000902FCD0401E10BD032A40F2308010F0DF
:10110000030C00F0158011F8013BBCF1020F6244A2
:1011100098BF11F801CB00F8013B38BF11F8013B33
:10112000A2F1040298BF00F801CB38BF00F8013BE0
:1011300011F0030300F02580083AC0F0088051F850
:10114000043B083A51F804CBA0E80810F5E7121D5B
:101150005CBF51F8043B40F8043BAFF30080D2077A
:1011600024BF11F8013B11F801CB48BF11F8012B46
:1011700024BF00F8013B00F801CB48BF00F8012B69
:10118000704710B5203AC0F00B80B1E81850203AF3
:10119000A0E81850B1E81850A0E81850BFF4F5AF17
:1011A0005FEA027C24BFB1E81850A0E8185044BFA1
:1011B00018C918C0BDE810405FEA827C24BF51F80E
:1011C000043B40F8043B08BF7047D20728BF31F802
:1011D000023B48BF11F8012B28BF20F8023B48BF53
:1011E00000F8012B704702F0FF0343EA032242EAB2
:1011F000024200F002B84FF000020429C0F0128051
:1012000010F0030C00F01B80CCF1040CBCF1020FB9
:1012100018BF00F8012BA8BF20F8022BA1EB0C018E
:1012200000F00DB85FEAC17C24BF00F8012B00F884
:10123000012B48BF00F8012B70474FF0000200B5AA
:10124000134694469646203922BFA0E80C50A0E8E9
:101250000C50B1F12001BFF4F7AF090728BFA0E897
:101260000C5048BF0CC05DF804EB890028BF40F863
:10127000042B08BF704748BF20F8022B11F0804FA5
:1012800018BF00F8012B7047704770477047000087
:1012900000487047187300207047704770477047C8
:1012A00038B504460A4600206946AFF3008000289E
:1012B00008BF38BD02460099204600F0AFFA012071
:1012C00038BD012000F0D4BBF8B5AFF3008005466F
:1012D00000200C46102000BF0646A819A0420DD9D8
:1012E000324669460020AFF30080070008BF00F0D7
:1012F000BFFB0098A04218BF0546C419FFF7C8FFFE
:1013000005600746F01D20F007004619284600F04A
:101310000AF8B44208BFF8BDA21B31463868BDE8E0
:10132000F84000F07BBA00210160C0E9011070476D
:101330001020704770B50446051FFFF7A9FF00682D
:10134000002C14BF446870BD002C18BFAC423CBFD9
:1013500020466468F8D301680A18AA4218BF45609D
:1013600003D12A6805461144016028684119A14249
:101370001CBF6C6070BD61686960216808442860AA
:1013800070BD10B500F046FA006810BD10B50446F7
:1013900000F040FA046010BD70472DE9FF4F0C4685
:1013A0001E464FF0FF378BB0D2E90001DDF86080B8
:1013B0000A908A46C1F30A5505B93D460021084600
:1013C00009F0BAFABAF1000F00F4400005DA00EBB8
:1013D00080004FF4400101EA50004FEA9059B9F102
:1013E000010F00DDB9460A9850EA4A000ED044F6D3
:1013F0001050A5F2FF3545432F14B8F1000F1ED051
:101400007542291E1EDDC9F100021CE0B8F1010F72
:101410004FF0000001D0302103E0F24305E02154F9
:10142000401CB042FBDB30460022002121540B99C6
:10143000C1F80880C1E900200FB0BDE8F08FBD1BE6
:101440006D1CDEE74A4600DA694206A800F09EFA03
:1014500006AB93E8070003AB83E8070050460A9900
:1014600000F02DFC8DE80700A0F500501F3800901B
:101470000398002D0ADD42F21F014A46084400236A
:1014800003A90390684600F096FE09E0A0F500501D
:101490004A461F38002303A90390684600F0A0FEC7
:1014A0008DE807000004000C03D04FF0FF30410826
:1014B00000E01046B8F1000F03D00022009215465C
:1014C0001EE0751E05D400F0C3F9303262556D1E62
:1014D000F9D5B3460122084302D000227F1C04E064
:1014E0002078302801D100227F1E002A099784D05D
:1014F0001DE0112D07DA00F0ABF9303262556D1C9A
:1015000050EA0102F5D1084302D00098C8B10EE0BC
:101510000021681E05E0235C625C63542254401E77
:10152000491C8142F7DBAB46A81B401E09900020F6
:1015300004F80B000B98099AC0F80880C0E9002B4A
:101540007AE711264FF0000857E72DE9F04F88465B
:101550000446D21D22F0070191B0D1E90001CDE986
:101560000A0106F01AFD02460B98C00F01D02D208B
:1015700007E02068810701D52B2002E0202101EA45
:10158000C000032A099001D0072A05DB0346414623
:10159000204600F0BBF90BE12078800601D5E06918
:1015A00000E00620B8F1650F814606D0B8F1660F5D
:1015B00018D0B8F1670F70D131E00020B9F1110FE8
:1015C000009001DB112301E009F101030AAA01A93E
:1015D0000CA8FFF7E2FEDDE90C70002609F1010519
:1015E000834647E001204B4600904FF000470AAA8F
:1015F00001A90CA8FFF7D1FEDDE90DB00C995D46FD
:10160000002610B909F101000D18B9EB050003D44B
:10161000C0F1FF3609F10105A5EB09002BE0B9F196
:10162000010F01DA4FF001090020B9F1110F00900C
:10163000484601DD112300E003460AAA01A90CA8CF
:10164000FFF7ABFEDDE90C704D460026834620789F
:1016500000070AD4AB4500DA5D4601A8012D04DD80
:10166000411911F8011C302907D04F4502DA17F152
:10167000040F04DA012082460FE06D1EEEE7002F12
:1016800002DCED1B3E4403E0781CA84200DD7D1C1B
:10169000B81B00F1010A4FF000472078000703D47F
:1016A000AA4501DB4FF0FF3A0021B7F1004F0DF1E1
:1016B00043088DF8431024D002202B23002F01DA99
:1016C0007F422D230A21021EA0F1010000DC5FB140
:1016D00097FBF1FC97FBF1F201FB1C7C17460CF128
:1016E000300C08F801CDEEE7A8F101000370218865
:1016F000090501D5452100E06521A0F1010800F8A8
:10170000011C09980FA9A1EB0807FF1D00B10120DA
:10171000411901EBEA70A1693844081A401EA06122
:101720002078C00602D42046AFF30080099828B183
:10173000D4E901219047206A401C20622078C0062D
:1017400022D52046AFF300801EE0002E04DBB34517
:1017500002DD01A8805D00E03020D4E9012190473E
:10176000206A401C2062761CAAF101005FEA000A90
:101770000AD100F04BF8C0680168405CD4E901214F
:101780009047206A401C2062281EA5F10105DCDC80
:1017900007E0D4E9012118F8010B9047206A401CAA
:1017A0002062381EA7F10107F3DC2046AFF300806A
:1017B000032011B041E6000001694A1C026108786B
:1017C000704700B58FB0CDE9013100210591054981
:1017D0007944CDE9031011466846FFF7E7FB0FB0E7
:1017E00000BD0000E5FFFFFF0A6802F8010B0A6078
:1017F0007047D1E900239A4202D2531C0B6010704B
:101800007047000000487047107300200048704780
:101810003073002000487047107300200346406872
:101820008C46002818BF88423CBF03464068F8D366
:1018300018681844884207D00CF1030020F0070014
:10184000001D411A521A0146081D0A60FFF772BDB9
:1018500030B5B0F10A024FEA900E71F100034EEA82
:10186000817EB0EB0E0061EB91014FEA101E4EEA53
:10187000017E10EB0E0041EB11114FEA102E4EEAE3
:10188000016E10EB0E0041EB11214FEA104E4EEAB3
:10189000014E10EB0E0041EB1141401841F10001E7
:1018A0004FEAD00040EA41704FEAD10110EB8005C9
:1018B0004FEA810444EA907444EB01046D1944EB4F
:1018C0000404521BA3414FF0000348BF0A3200D565
:1018D00030BD401C41F1000130BD00001FB584B097
:1018E00000200A9C06AB04AA02A90094AFF3008072
:1018F00018B1DDE9020108B010BD0348204000F036
:10190000F2F800200146F6E70000207C2DE9F041C6
:101910001F46044603260168072A01F4006004DB21
:1019200008B116A505E016A503E008B115A500E06D
:1019300015A521F010002060A069C01EA0610FB1A4
:10194000401EA0612046AFF300804FB1D4E90121D1
:1019500038469047206A401C2062C01C206206E086
:10196000206AFAE7D4E9012115F8010B9047761EA9
:10197000F8D22046AFF30080BDE8F0814E414E0022
:101980006E616E00494E4600696E66002DE9F047B3
:10199000814616468AB0354878440DC88DE80D005A
:1019A00032487844801C03AC0DC884E80D0041F631
:1019B0009B300844372190FBF1F290FBF1F5A5F143
:1019C000800501FB12041B3C02D56442012000E0AB
:1019D0000020DFF898A080460027FA44AAF1BE0A4A
:1019E0000EE0E0070AD03246684607EB47010123C4
:1019F0000AEB810100F0F4FB8DE8070064107F1C06
:101A0000002CEED1194F7F44AE3F19E0E80715D006
:101A100007EB04100DF1180A90E80E008AE80E009A
:101A2000C068F04201D1981908903246012306A9F6
:101A300003A800F0D5FB03AB83E807006D10641C1E
:101A4000002DE3D14FF0010332466946B8F1000F93
:101A500003A802D000F0AFFB01E000F0C1FBC9E930
:101A60000001C9F808200AB0BDE8F087C09A00005C
:101A700010B500F03FF8BDE8104000F02FB87047F7
:101A80007546FFF7BFFEAE4605006946534620F097
:101A90000700854618B020B5FEF764FCBDE820407D
:101AA0004FF000064FF000074FF000084FF0000B1A
:101AB00021F00701AC46ACE8C009ACE8C009ACE8CD
:101AC000C009ACE8C0098D46704710B50446AFF3B5
:101AD00000802046BDE81040FEF7D0BB002801D0B2
:101AE00000F070B8704710B500F08CF8BDE81040F9
:101AF000FFF7F4BF10B5012805D0002103A000F0C6
:101B000067F8012010BD09A1F8E7000053494752CA
:101B1000544D454D3A204F7574206F6620686561BD
:101B200070206D656D6F7279000000003A20486585
:101B30006170206D656D6F727920636F7272757060
:101B4000746564004FF0013C50F8042B51F8043BDD
:101B50009A4221D1A2EB0C03934313EACC1317D181
:101B600050F8042B51F8043B9A4215D1A2EB0C0318
:101B7000934313EACC130BD150F8042B51F8043BD8
:101B80009A4209D1A2EB0C03934313EACC13DBD0A6
:101B90004FF00000704700BFD01A01BAB1FA81F1CE
:101BA00001F0180122FA01F0CB40C1F12001DBB2B3
:101BB000C0B2C01A2CFA01F3D11A914311EAC31131
:101BC000E6D1704701491820ABBEFEE726000200AF
:101BD00070B505460C460A2000E06D1C00F068F860
:101BE00035B128780028F8D102E0641C00F060F8D4
:101BF00014B120780028F8D1BDE870400A2000F028
:101C000057B8000010B5022803D0410103D50DA13B
:101C100012E0002010BD010101D50FA10CE0C100B0
:101C200001D511A108E0810001D512A104E0400016
:101C300001D513A100E0002115A0FFF7C9FF012085
:101C400010BD0000496E76616C6964204F7065724A
:101C50006174696F6E0000004469766964652042B2
:101C600079205A65726F00004F766572666C6F77E7
:101C700000000000556E646572666C6F77000000AE
:101C8000496E657861637420526573756C740000E9
:101C90005349474650453A2041726974686D6574EE
:101CA000696320657863657074696F6E3A2000001F
:101CB00008B569468DF800000320ABBE08BD5FEA99
:101CC000400C08BF91F0000F4FEA8C234FEAC1226D
:101CD00043EA51514FEA1C5018BF00F5F0404FEA5B
:101CE000300018BF41F000415FEA6C5C00F02980D1
:101CF000BCF1FF3F08BF40F080407047130C06BFA7
:101D000012044FF0100C4FF0000C130E04BF12021F
:101D10000CF1080C130F04BF12010CF1040C930F0B
:101D200004BF92000CF1020CD30F04BF52000CF15F
:101D3000010C11464FF00002A0F11F00A0EB0C00B7
:101D4000704711F0004F08BF704731F000413FF479
:101D5000D5AF0B0C06BF09044FF0100C4FF0000C70
:101D60000B0E04BF09020CF1080C0B0F04BF090194
:101D70000CF1040C8B0F04BF89000CF1020CCB0F8B
:101D800004BF49000CF1010CCCF12003A0EB0C00C6
:101D900022FA03F302FA0CF241EA030100F1010016
:101DA000704720F07F4C80EA030023F07F47ACEBC4
:101DB000070303F57C5300F0004003F1FF032DE916
:101DC00080494FEA154B09B44FEA144325EA0B4EFC
:101DD00024EA03480FF2042606EB132749083E784D
:101DE0005FEA320203FB0667C7F5000707FB06F64A
:101DF0004FEA54374FEAD64606F1020607FB066C57
:101E0000CCF1005C4FEA1C472CEA074C07FB06F4B8
:101E10000CFB06F504EB15464FEA961634BF00207E
:101E20004FF000404FEAD13706FB07FC4FEA1C4C4D
:101E30000CFB0BF7D21B03FB0CF761EB07010CFB50
:101E40000EF7B0EB074072EB17420CFB08F734BFFC
:101E5000A2EB0742B2EB074261EB17414FEA0C4499
:101E60004FEA910706FB07FC4FEA1C4C0CFB0BF7F3
:101E7000B0EBC74072EB573203FB0CF734BFA2EB59
:101E8000C742B2EBC74261EB57310CFB0EF7B0EB28
:101E9000C70072EB57720CFB08F734BFA2EBC70206
:101EA000B2EBC70261EB5771039F4FEA816141EAD0
:101EB000921104EBCC044FEAD1374FEA826206FB61
:101EC00007FC42EA90124FEA80604FEA1C4C0CFB80
:101ED0000BF7D21B03FB0CF761EB07010CFB0EF7B2
:101EE000B0EB074072EB17420CFB08F734BFA2EBD4
:101EF0000742B2EB074261EB17414FEA8C554FEABC
:101F0000910704EB9C2406FB07FC4FEA1C4C0CFBDE
:101F10000BF7B0EBC74072EB573203FB0CF734BF43
:101F2000A2EBC742B2EBC74261EB57310CFB0EF795
:101F3000B0EBC70072EB57720CFB08F734BFA2EB93
:101F4000C702B2EBC70261EB577115EB4C254FEAA4
:101F5000816141EA92114FEA82624FEAD13742EA47
:101F6000901206FB07FC44F100044FEA80604FEA40
:101F70001C4C0CFB0BF7D21B03FB0CF761EB0701AE
:101F80000CFB0EF7B0EB074072EB17420CFB08F7A7
:101F900034BFA2EB0742B2EB074261EB174115EBEE
:101FA0001C154FEA813141EA92414FEA823242EAFE
:101FB00090424FEA80304FEA0C7644F1000448EA40
:101FC00003434EEA0B484FF0000EB2EB080C71EBE6
:101FD000030724BF624639464EEB0E0E4FF0000B4E
:101FE0000018524149414BEB0B0BB2EB080C71EB63
:101FF00003077BF1000B24BF624639464EEB0E0E01
:102000004FF0000B0018524149414BEB0B0BB2EB68
:10201000080C71EB03077BF1000B24BF62463946C5
:102020004EEB0E0E51EA020718BF46F0010616EB02
:102030000E7655F1000254F1000103D5BDE8890187
:10204000BDE80088BDE88901BDE80048B6195241E5
:1020500041EB0101A3F10103704780807F7E7D7C0D
:102060007B7A7978777676757473727171706F6E2A
:102070006E6D6C6C6B6A6A696868676666656464D5
:10208000636362616160605F5F5E5E5D5D5C5C5B5F
:102090005B5A5A59595858575756565555555454CE
:1020A000535352525251515050504F4F4F4E4E4D2C
:1020B0004D4D4C4C4C4B4B4B4A4A4A494949484878
:1020C00048474747474646464545454444444443B8
:1020D00043434342424242414141002B9C4630D45B
:1020E00077002BD01CB54FEA370703B44FF0100030
:1020F0004FF01001BAF1000F06D0BCF1000FDCBFA9
:1021000040F0080040F0080108F016FC0FBCBDE8E4
:1021100010400BF1010BBBF1010F08BF5FEA17077D
:1021200022BF12F1010211F101014FF0004143F110
:10213000000300F0004043EA00007047F9D357085D
:10214000D0E746EA064613F1400F4FEA16461FDD78
:1021500013F1200FDFBF16430A46002120335B42F4
:10216000BED0C3F1200746EA064602FA07F74FEA57
:10217000164646EA0706C3F1200722FA03F201FADF
:1021800007F721FA03F14FF0000342EA0702A7E73D
:1021900046EA020646EA06464FEA164646EA0106BF
:1021A000BCBF46EA0646360C4FF000034FF0000273
:1021B0004FF0000194E72DE9804C9A46934670B4A5
:1021C00091E8380007C831EA400C48BF34EA430CB4
:1021D00003D5FFF7E6FDFFF780FFF0BCBDE8008CFC
:1021E0002DE9804C9A46934670B491E8380007C8B0
:1021F00010F0804F08BF13F0804F03D100F005F8B6
:10220000FFF76BFFF0BCBDE8008C20F07F4780EA51
:10221000030023F07F4C07EB0C03A3F57C5300F085
:102220000040A3F1FE0392F0000F00F0B38095F0A0
:10223000000F00F077802DE901494FEA11404FEA85
:10224000144621EA004800FB06FC24EA064708FB86
:1022500006F607FB08F800FB07F718EB06484CEBFF
:10226000164C4FEA124B18EB07484FEA15464CEB59
:10227000174022EA0B4E0BFB06FC25EA06470EFB35
:1022800006F607FB0EFE0BFB07F71EEB064E4CEBAC
:10229000164C4FF000061EEB074E4CEB174B18EB9D
:1022A0000B0840F1000018EB0E0B58EB000840F152
:1022B00000008F1A4FF000013CBFC943661B14BFDA
:1022C000B5EB040C00213CBFC943F61B4FEA174491
:1022D0004EEA8E0E27EA04454FEA1C4704FB0762CC
:1022E0002CEA074C05FB07F70CFB05F604FB0CFC7E
:1022F00016EB074642EB174216EB0C4642EB1C422C
:102300001BEB060658EB0202414146EA9E0601D548
:10231000BDE80189B619524141EB0101A3F1010366
:10232000BDE801894FEA14454FEA114724EA054602
:1023300021EA074C05FB07F406FB07F70CFB06F147
:1023400005FB0CFC11EB074144EB17444FEA124725
:1023500011EB0C4144EB1C4422EA074C05FB07F24D
:1023600006FB07F70CFB06F605FB0CFC16EB074615
:1023700042EB174216EB0C4642EB1C456A1854F12F
:10238000000148BF7047B619524141EB0101A3F16A
:102390000103704795F0000F37D04FEA11424FEA22
:1023A000144721EA024624EA074C02FB07F106FB28
:1023B00007F70CFB06F402FB0CFC14EB074441EBA3
:1023C00017414FEA154714EB0C4441EB1C4125EA39
:1023D000074C02FB07F506FB07F70CFB06F602FBB2
:1023E0000CFC16EB074645EB174516EB0C4645EB88
:1023F0001C42121951F1000148BF7047B6195241F1
:1024000041EB0101A3F1010370474FEA14454FEA84
:10241000114724EA054621EA074C05FB07F106FBB4
:1024200007F70CFB06F24FF0000605FB0CFC12EB65
:10243000074241EB174112EB0C4251EB1C4148BFE4
:102440007047921841EB0101A3F1010370470000AE
:1024500001221021014801F02DBB000000000240C4
:1024600000221021014801F025BB000000000240BD
:1024700001221146014801F01DBB0000000402408A
:1024800000220121014801F015BB000000040240B8
:1024900070B50546FFF7E4FF922000F02DF9062203
:1024A0006549122000F00AF9FFF7D2FF624CA4F14F
:1024B0001C0660782178000200B2084300EE100A82
:1024C000D6ED030AB8EEC00A60EE200A95ED080AC0
:1024D00060EE800AC5ED000AE078A178000200B243
:1024E000084300EE900A96ED031AF8EEE00A60EE5B
:1024F000810A60EE800AC5ED010A60792179000247
:1025000000B2084300EE900A3081F8EEE00A60EE77
:10251000810A20EE800A85ED020AFFF7B1FF08224A
:102520002146002000F0CAF8FFF7A2FF20780F280C
:102530005AD1F078A1780028E0784FEA002000B264
:1025400040EA01002BD000EE100AD5ED090AB8EEE2
:10255000C01A96ED040A51EE000AC5ED030A60792F
:102560002179000200B2084300EE900A95ED0A1AA4
:10257000F8EEE00A10EE801A85ED041AE079A179F0
:10258000000200B2084300EE900A308195ED0B1A6C
:10259000F8EEE00A10EE801A85ED051A24E000EE50
:1025A000100AF8EEC00A96ED040A60EE800AC5ED46
:1025B000030A60792179000200B2084300EE900A14
:1025C000F8EEE00A60EE800AC5ED040AE079A17930
:1025D000000200B2084300EE900A3081F8EEE00AF3
:1025E00020EE800A85ED050AFFF73AFFA22000F0F1
:1025F00083F802221049222000F060F8FFF728FF3C
:1026000020786178C00040EA51103081B0F5806FC9
:1026100002DBA0F500603081B6F90800B4EE001AC4
:1026200000EE100AF8EEC00AB3EE070A00EE810AC7
:1026300085ED070A70BD0000F400002070B50D465E
:102640001649174C08600020A07005F067FFA178BC
:102650000843A07005F0F6FFA1780843A0701DB1F3
:10266000104800F0DBF816E00E489FED0F0A80EDF1
:10267000090A9FED0E0A80ED0A0A80ED0B0A9FED14
:102680000C0A80ED0C0A9FED0B0A80ED080A9FED05
:102690000A0A80ED060AA07870BD00002001002023
:1026A000D8000020280E0020AC38223BB016CE39CE
:1026B0003F161B41C48B813F0000204270B5144679
:1026C0000D4640F0800000F017F806E0552000F0BD
:1026D00013F8641E05F8010BE4B2002CF6D170BDAE
:1026E00010B50C4640F0800000F006F8552000F0D0
:1026F00003F8207010BD000001B582B04FF47A706D
:1027000000900548012301AA02A9006801F046FED5
:102710009DF804000EBD00002001002010B50C46FD
:10272000FFF7EAFF2046BDE81040FFF7E5BFB6EE31
:10273000000AD2ED020AF0EE401A92ED031A40EEC2
:10274000E01A90ED002AD2ED012AD0ED013A22EEF6
:10275000A03A41EE411A21EE822AD2ED001A01EE92
:10276000C13A22EE811A01EEA01A03EE232AD0ED1F
:10277000020AF0EE001A01EE202A62EE210AC1EDF3
:10278000000A92ED011AD2ED023A92ED002AD2ED42
:10279000030A61EE232A90ED003A90ED014A42EEE1
:1027A000202A62EE832AB0EE403A01EE413A00EE72
:1027B000E03A63EEA00A42EE410A43EE042A90EDAD
:1027C000021A40EE812A62EEA10AC1ED010A92EDE1
:1027D000011AD2ED032AD2ED020A92ED003A21EE5F
:1027E000222A60EEA22AD0ED003A01EE410A03EE61
:1027F000602A43EE012A90ED013A00EEE00A22EE53
:10280000232AD0ED020A02EE832A00EE202A22EECD
:10281000210A81ED020A7047FEE700002DE9F04F22
:1028200004462DED048B89B000200090019000F04B
:1028300043FDED4DDFF8B4B3DFF8B49385ED050A41
:1028400002AE0DF114084FF07C5A00BF00F034FDC9
:10285000D5ED050A30EE600A10EE100A584512DD7B
:102860009FEDE40A84ED090A9FEDE30A84ED0A0A6C
:1028700084ED0B0A9FEDE10A84ED0C0A9FEDE00A5E
:1028800084ED060A8BE19FEDDF0A00F0D9FC9FED95
:10289000DE0A002784ED0C0A84ED090A84ED0A0A99
:1028A00084ED0B0AFBE000BFFFF7DAFD9220FFF793
:1028B00023FF062269461220FFF700FFFFF7C8FD3D
:1028C0009DF801009DF80010000200B2084300EEE0
:1028D000100AD5ED030AB8EEC00A60EE201AC4ED66
:1028E000001A9DF803009DF80210000200B2084390
:1028F00000EE100A95ED031AB8EEC00A60EE010A68
:10290000C4ED010A9DF805009DF80410000200B214
:10291000084300EE100AB8EEC00A20EE011A21EEBC
:10292000A10A84ED021A00EEA00A01EE010A05F0E8
:10293000B9FDB0EE408A94ED0C0A30EE080A84ED41
:102940000C0AFFF79DFD082269460020FFF7B6FE3E
:10295000FFF78EFD9DF800000F2840D19DF8030081
:102960009DF80210000200B2084300EE100AD5EDF7
:10297000040AB8EEC00A20EE200A84ED030A94EDA2
:10298000091A31EE000A84ED090A9DF805009DF848
:102990000410000200B2084300EE100AB8EEC00AAC
:1029A00020EE200A84ED040A94ED0A1A31EE000AA2
:1029B00084ED0A0A9DF807009DF80610000200B297
:1029C000084300EE100AB8EEC00A20EE200A84ED9B
:1029D000050AD4ED0B0A30EE800A84ED0B0A002FB5
:1029E0007ED0B4EEC98AF1EE10FA01DDB0EE489A5D
:1029F000B4EEE88AF1EE10FA01D2F0EE488A002037
:102A00004FEA080204EB800191ED030A06EB800116
:102A1000D1ED000AB4EEE00AF1EE10FA01DD81ED2D
:102A2000000A02EB8001D1ED000AB4EEE00AF1EEFB
:102A300010FA01D281ED000A401CC0B20328E1D394
:102A400039EE680A0020424685ED060A4FEA090180
:102A500006EB8003D3ED000A02EB800393ED001A2E
:102A600001EB8003401C70EEC10AC0B20328C3ED25
:102A7000000AEDD310EE100A504514DC63480A68D2
:102A8000824210DC4A6882420DDCD9F8081081428B
:102A900009DC9FED5F0A00F0D3FB7F1CBFB2E88822
:102AA0008742FFF401AFE988D4ED0C0A00EE101A5A
:102AB0002F460020B8EE400A80EE801A84ED0C1AF2
:102AC00000EE101A04EB8002401CB8EE400AD2ED72
:102AD000090AC0B2032880EE801A82ED091A00E0CC
:102AE0006AE0EDD3FFF7BCFCA220FFF705FE02224F
:102AF00069462220FFF7E2FDFFF7AAFC9DF80000DF
:102B00009DF80110C00040EA5110B0F5806F01DB64
:102B1000A0F5006000EE100AB4EE001AF8EEC00A4C
:102B2000B3EE070A00EE810A84ED060AB888401C5D
:102B3000B880B86950453FF789AE94ED0C0ADFEDD7
:102B4000350A30EE600AB0EEC00A10EE100A5045A9
:102B5000F1DC2E48D9F800104A468142EBDC51687E
:102B60008142E8DCD9F808108142E4DC94ED090ADE
:102B70002948B0EEC00A10EE101A8142DBDC94ED59
:102B80000A0AB0EEC00A10EE101A8142D3DC94EDAE
:102B90000B0AB0EEC00A10EE101A8142CBDC94EDA5
:102BA0000C0ADFED1E0A80EE801A84ED081A09B0C7
:102BB000BDEC048BBDE8F08FB0EE489AF0EE488A89
:102BC0000020414604EB800292ED030A06EB8002EE
:102BD00082ED000A01EB8002401CC0B282ED000AC7
:102BE0000328EFD32CE70000D8000020000020418C
:102BF0001C0E0020AC38223BB016CE393F161B41CC
:102C0000000020420AD7A33B000000009A99193E19
:102C10006F12033ACDCC1C410AD7233CC3F51C41AB
:102C200010B540482DED048B9FED3B8ADFED3B8ACC
:102C30009FED3B9AB0EE481AF0EE680AB0EE490AF2
:102C400004F01CFC3748B0EE481AF0EE680AB0EE0B
:102C5000490A143004F012FC3248B0EE481AF0EE83
:102C6000480A9FED310A283004F008FC2D48B7EEE1
:102C7000001AF0EE480AB2EE0C0A3C3004F0FEFBFB
:102C80002848B7EE001AF0EE480AB2EE0C0A5030AF
:102C900004F0F4FB2348B0EE481ADFED240A9FED60
:102CA000240A643004F0EAFB2248234990ED1C0A10
:102CB00081ED010A90ED1D0A81ED020A90ED1E0AD8
:102CC0001E4881ED030A002101F0DCFE04211B48AF
:102CD00001F0D8FE0821194801F0D4FE0C21174854
:102CE00001F0D0FE4FF47A7422460021134804F01C
:102CF000A1FE22460421114804F09CFE2246082130
:102D00000E4804F097FEBDEC048B22460C21BDE872
:102D100010400A4804F08EBE000000006F12833A93
:102D20009A99193EA40D00200AD7233DCDCC4C3DE5
:102D300000002042CC0C00207C000020580A00201B
:102D400070B5E948E94C2DED048B01682278C8B2D2
:102D500002B1002009B900212170E54D95ED1C2A32
:102D6000D5ED1D1A78B1B0EEC20A10EE102AE14975
:102D70008A4205DCB0EEE10A10EE102A8A4202DD3A
:102D8000012020700020DC49DC4A096812681143E8
:102D9000DFEDDB8A7ED100287CD0DA4890ED000A96
:102DA000B8EEC00ADFEDD80AD84830EE600A90EDE0
:102DB000001AD748B8EEC11AD0ED002AD548F8EE6F
:102DC000E22A31EE601A72EEE02AF1EE410AB1EE2B
:102DD000621AF0EEC02A12EE901A814201DAB0EEC9
:102DE000680AF0EEE02A12EE901A814201DAF0EE63
:102DF000680AF0EEC12A12EE901A814201DAB0EEB2
:102E0000681ADFEDC52A80EE223AB3EE0E0A63EEB1
:102E1000003A80EEA20AFBEE0E0AC4ED013A20EE63
:102E2000203A81EE220ADFEDBD0A84ED023A9FEDE1
:102E3000BC1ABC4920EE011A94ED030A01EE200AE7
:102E400010EE100A84ED030ADFEDB70A884203DDB5
:102E500030EE600A84ED030A10EE100AB34A904285
:102E600003D930EE200A84ED030A33EE619A95ED22
:102E70001E1AD4ED031A33EEC20A31EEC18A18EEDF
:102E8000100A884201DD38EE608A18EE100A90427E
:102E900003D900E02BE038EE208AF0EE680AA4485F
:102EA00004F030FBA24884ED040AF0EE680AB0EEAC
:102EB000490A143004F026FB9D4884ED050AF0EE23
:102EC000680AB0EE480A283004F01CFB84ED060ABC
:102ED000D4ED041A974811EE902A9FED972A97494E
:102EE000DFED970A824232D9F0EE421A35E04FF414
:102EF0007A7632460021934804F09CFD3246042144
:102F0000904804F097FD324608218E4804F092FD67
:102F100032460C218B4804F08DFD85482830C0EDE9
:102F2000038A1438C0ED038A1438C0ED038A643074
:102F3000C0ED038A1438C0ED038A1438C0ED038A4B
:102F400095ED1E0A84ED030ABDEC048B70BD11EEF5
:102F5000902A8A4201DDF0EE601AC4ED041A94ED65
:102F6000051A11EE102A824202D9B0EE421A05E08B
:102F700011EE102A8A4201DDB0EE601A10EE102A1E
:102F800084ED051A824202D9B0EE420A05E010EE45
:102F9000100A884201DDB0EE600A84ED060A95ED64
:102FA000052AD5ED040A624831EE428A71EEE01A34
:102FB00095ED061A3C3030EE419AB0EE610A04F00D
:102FC000A1FAB0EE401A5A48F0EE418AD5ED050A52
:102FD000B0EE480A503004F095FAB0EE401A54486A
:102FE000B0EE418AD5ED060AB0EE490A643004F02D
:102FF00089FA5548D0ED000A5448F8EEE01A31EE4F
:10300000A82A71EEE81A72EE480A31EEC81A70EE7C
:10301000800A71EE408A31EE881A10EE902A31EE65
:10302000009A32EE081A31EE408A9FED491A49495A
:103030009FED490A824202DAF0EE410A05E010EE05
:10304000902A8A4201DDF0EE400A18EE902A824270
:1030500002DAF0EE418A05E018EE902A8A4201DD9C
:10306000F0EE408A19EE102A824202DAB0EE419A5E
:1030700005E019EE102A8A4201DDB0EE409A18EE02
:10308000102A824202DAB0EE418A05E018EE100AF8
:10309000884201DDB0EE408ABCEEE00A002110EE6D
:1030A000100A82B2274804F0C5FCBCEEE80A0421ED
:1030B00010EE100A82B2234804F0BCFCBCEEC90A30
:1030C000082110EE100A82B21E4804F0B3FCBCEED8
:1030D000C80ABDEC048B0C2110EE100ABDE870404C
:1030E00082B2184804F0A6BC700000207C000020CA
:1030F000CC0C0020000096427800002074000020D4
:10310000000000006C0000200080BB44680000202C
:10311000640000200000A0400000FA436F12033B4F
:1031200000003443000034430000B443000034C3C3
:10313000A40D002000007AC300007AC300007A4387
:1031400000007A43580A00206000002000007A4402
:1031500000007A440000FA440000FA44014800F0FC
:103160001FBA0000780B0020014800F019BA0000D7
:103170009809002001681823CAB2103AB2FBF3F292
:10318000054B6FF30901032A9B5CC36500D9091D38
:103190008165084670470000D4AB000810B50146B1
:1031A00000208B698A6A4FF0C07453B1B3F5005F99
:1031B00015D072B1012A0CD0022A0AD0032A09D1F3
:1031C00004E01AB1012A06D0022A03D1C96AC90152
:1031D00000D5012010BDC96AA142FAD010BD002A55
:1031E000F7D0012AF2D0022AF3D0032AF3D010BD7F
:1031F00030B50468256825F480252560046863607F
:103200008368402B036803D099600068C26030BDBA
:103210009A600068C16030BD074808B540680090FA
:10322000014606480269914202D2C168491CC16048
:103230000099016108BD0000001000E09800002026
:103240000A4948680A4AD2ED000A4A68121AF8EE9A
:10325000601A01EE102AB8EE411A60EE211AB4EE9F
:10326000E11AF1EE10FAF0D370470000001000E010
:103270009800002000B50E492DED028B81B0496801
:1032800000910168009A511A00EE101A0949F8EEEF
:10329000400A91ED000A0260B8EE400A80EE808A92
:1032A000FFF7BAFF01B0B0EE480ABDEC028B00BDDB
:1032B000001000E09800002010B500F043F80C4822
:1032C0009FED0C1A818890ED000A00EE901AC088DC
:1032D000B8EE400AF8EE600A00EE810A00EE900AAD
:1032E0009FED051AF8EE600A00EE810A10BD00009D
:1032F000C80000206F12833ABD3786350D490A6831
:1033000042F080720A600C4900224A600B6843F068
:1033100001030B6009494FF47A734843B0FBF3F3A0
:103320000749C1E90003054BB0FBF3F0C1E9020214
:1033300070470000FCED00E0001000E040420F008C
:10334000980000202DE9F843214840680090FFF7DD
:1033500063FF204F0024009EF8684FF0FF312546A0
:10336000E0FB0165C7E90E65D7F8008023464246B9
:1033700030462946FDF789FDA0FB083CC7E9060158
:1033800001FB08C100FB0411F61A65EB0105C7E952
:10339000086507F130080023C8F80000D7F804904A
:1033A00030464A462946FDF770FD80B2A8F8040071
:1033B00000FB09F0301A65EB0405C7E90A05294648
:1033C0000023BA68FDF761FDA8F80600BDE8F883A0
:1033D000001000E0980000207047082000F066BA56
:1033E000102000F063BA10B5202000F05FFA4020F2
:1033F00000F05CFABDE81040802000F057BAB6EE4D
:10340000000AD2ED020AF0EE401A92ED031A40EEE5
:10341000E01A90ED002AD2ED012AD0ED013A22EE19
:10342000A03A41EE411A21EE822AD2ED001A01EEB5
:10343000813A22EE811A01EEE01A03EE232AD0ED42
:10344000020AF0EE001A01EE202A62EE210AC1ED16
:10345000000A92ED011AD2ED023A92ED002AD2ED65
:10346000030A61EE232A90ED003A90ED014A42EE04
:10347000602A62EE832AB0EE403A01EE413A00EE55
:10348000E03A63EEA00A42EE010A43EE042A90ED10
:10349000021A40EE812A62EEA10AC1ED010A92ED04
:1034A000011AD2ED032AD2ED020A92ED003A21EE82
:1034B000222A60EEA22AD0ED003A01EE410A03EE84
:1034C000202A43EE412A90ED013A00EEE00A22EE76
:1034D000232AD0ED020A02EE832A00EE202A22EEF1
:1034E000210A81ED020A704770472DE9F041044638
:1034F000876D00F0E5FA064694F8350000250228AD
:1035000006D08020606584F834500120BDE8F08149
:103510002068016821F0160101602068416921F0EE
:1035200080014161206C08B9A06C20B1206801685D
:1035300021F0080101602068016821F001010160AB
:103540000CE000F0BDFA801B052807D9202060653B
:10355000032084F8350084F83450D7E720680068E9
:10356000C007EED194F85C103F208840B86001207D
:1035700084F8350084F834500020C7E790F83510FF
:10358000022903D08021416501207047052180F880
:1035900035100068016821F00101016000207047CA
:1035A0002DE9F84304464FF00009CDF80090634838
:1035B0004FF41651A56D0068B0FBF1F72E6894F832
:1035C0005C10082000FA01F131420FD021680A682E
:1035D00052070BD50A6822F004020A6094F85C10C6
:1035E0008840A860606D40F00100606594F85C1050
:1035F0004FF0010808FA01F0304208D0216849690B
:10360000090604D5A860606D40F00200606594F87A
:103610005C1004208840304208D02168096889077E
:1036200004D5A860606D40F00400606594F85C10FB
:1036300010208840304218D021680968090714D545
:10364000A86020680168490304D50068000308D514
:10365000A16C07E00168C90503D4016821F00801E5
:103660000160216C09B12046884794F85C10202045
:103670008840304231D021680968C9062DD5A8603C
:1036800094F8350005282068016806D0490347D51D
:10369000006800031DD4616C1CE021F0160101607C
:1036A0002068416921F080014161206C08B9A06C5B
:1036B00020B12068016821F00801016094F85C10D5
:1036C0003F208840A86084F8358084F83490216DCC
:1036D0001FE0E16B09B120468847606D00282BD0C0
:1036E000606DC00714D0052084F83500206801689B
:1036F00021F0010101600098401C0090B84203D8FD
:1037000020680068C007F6D184F8358084F83490CA
:10371000E16C002910D001B02046BDE8F043084715
:103720000168C905D5D4016821F01001016084F851
:10373000358084F83490CCE7BDE8F8831000002091
:103740002DE9F041044600F0BBF906465CB10220C9
:1037500084F83500002584F834502068016821F091
:10376000010101600DE00120BDE8F08100F0A8F941
:10377000801B052805D920206065032084F83500CA
:10378000F2E720680068C007F0D12268116820487D
:103790000140D4E901031843D4E903363343184305
:1037A00063691843A3691843E3691843236A1843FC
:1037B0000843616A042903D1D4E90B131943084370
:1037C000106020684069666A20F0070130460E43A9
:1037D000012704280CD1A06A0643E06A40B12046C4
:1037E000FFF7DCFC20B14020606584F83570BAE753
:1037F000206846612046FFF7BDFC94F85C203F211D
:1038000091408160656584F835700020ACE7000068
:103810003F8010F02DE9F0410446866D90F83400A9
:10382000002501280DD0012084F8340094F835706B
:103830000020012F07D084F8340002252846BDE877
:10384000F0810220FBE7022784F83570606520468E
:10385000FFF7CEFC94F85C103F208840B0602068F1
:10386000016841F016010160206C20B120680168F8
:1038700041F0080101602068016841F00101016028
:10388000DCE7000070B5044600F01AF90546601C3C
:1038900002D004480078044400F012F9401BA04212
:1038A000FAD370BD1002002070470000044910B523
:1038B0000A68024202D00860FFF7F6FF10BD000060
:1038C000143C01402DE9F84FDFF8BCA1002201258E
:1038D00003264FF00F090AF1040BAAF1040E00BFF2
:1038E0000B6805FA02F42340A34270D10F7907F068
:1038F0000307012F01D0022F16D187684FEA420833
:1039000006FA08FC27EA0C07D1F80CC00CFA08FCF0
:103910004CEA070CC0F808C04768A7430C79C4F309
:10392000001494403C4344600C79E443A4070AD05B
:10393000C4684FEA420C06FA0CF7BC438F6807FADA
:103940000CF72743C7600C7904F00304022C12D152
:10395000D40800EB840CDCF820405707FF0E09FA6E
:1039600007F824EA0804D1F8108008FA07F848EAB2
:103970000408CCF8208004684FEA420C06FA0CF7E1
:10398000BC430F7907F0030707FA0CF727430760DA
:103990004C6814F4403F70D03C4C276847F4804793
:1039A0002760246822F0030704F480440094384C14
:1039B00007EB040CDCF8084897074FEA177809FA78
:1039C00008F7BC43334FB84202D1002724E054E04B
:1039D000314FB84201D101271EE0304FB84201D12A
:1039E000022719E02E4FB84201D1032714E02D4FD2
:1039F000B84201D104270FE02B4FB84201D105276F
:103A00000AE02A4FB84201D1062705E0284FB84204
:103A100001D1072700E0082707FA08F72743CCF869
:103A20000878DAF800405746D1F804C09C435FEAB2
:103A3000CC2C00D51C433C60DBF800405F46D1F83D
:103A400004C09C435FEA8C2C00D51C433C60DEF82C
:103A500000407746D1F804C09C435FEA8C3C00D517
:103A60001C433C60084F083F3C68D1F804C09C43AD
:103A70005FEACC3C00D51C433C60521C102AFFF48A
:103A80002FAFBDE8F88F0000083C014044380240E9
:103A900000300140000002400004024000080240E3
:103AA000000C0240001002400014024000180240C6
:103AB000001C02400AB1816170470904FBE7000065
:103AC00001488068704700001002002002488168A9
:103AD0000278114481607047100200200B4810B535
:103AE000016841F400710160016841F48061016086
:103AF000016841F480710160032000F09FF800200C
:103B000000F006F800F050F8002010BD003C024024
:103B100030B50546204887B00024016841F0010116
:103B20000160006806A900F00100009001A800F003
:103B300031F90498B0B100F04DF9400017494FF049
:103B40008042B0FBF1F11648491E026040F2E732B4
:103B5000C0E90324C0E90114846100F08BFD040076
:103B600003D015E000F036F9E8E70D4800F0C4FD99
:103B700004000DD11C2000F033F8102D07D20022D4
:103B800029461C2000F03AF80648056000E00124B0
:103B900007B0204630BD00004038024040420F00D0
:103BA000D80B0020140200200C4882B0016841F4B8
:103BB00080410160006800F4804000900748001FC9
:103BC000016841F0805101600068002200F08050DF
:103BD00000900F21901E02B000F010B8443802404F
:103BE000002809DB00F01F020121914040098000FC
:103BF00000F1E020C0F8001170470000F0B40E4B57
:103C00001B680C46C3F30223C3F10705042D00D93A
:103C10000425191D072901D2002300E0DB1E01261F
:103C200006FA05F1491E214099409E40761E164035
:103C30003143F0BC04F0DCB90CED00E0064900F0C3
:103C4000070208684FF6FF03184040EA0220034AC3
:103C500010430860704700000CED00E00000FA051A
:103C60002DE9F0470E46050065D0DFF81481D8F83D
:103C70000000F7B200F00700B04207D288F80070E9
:103C8000D8F8000000F00700B04254D128683D4C3D
:103C9000810712D5400703D5206840F4E05020602A
:103CA0002878000703D5206840F460402060206831
:103CB000A96820F0F000084320602878C0072DD0C4
:103CC000304968680839012812D0022813D0032827
:103CD00011D00968890700292DDA216821F0030134
:103CE00001432160FFF7ECFE814641F2883A0EE085
:103CF00009688903EFE709688901ECE7FFF7E0FE4F
:103D0000A0EB0901514502D90320BDE8F0872068E6
:103D1000696800F00C00B0EB810FEFD1D8F800100B
:103D2000404601F00701B14207D90770006800F072
:103D30000700B04201D00120E7E72878400705D509
:103D40002068E96820F4E0500843206028780007E4
:103D500006D52068296920F4604040EAC10020604F
:103D600000F058F82168084AC1F30311515CC840BB
:103D70000649086006480068FFF7CAFE0020C4E74D
:103D8000003C024008380240FCAA00081000002055
:103D9000140200200F2202600C4A136803F0030390
:103DA0004360136803F0F0038360136803F4E05387
:103DB000C36012684FF4E05303EAD2020261044880
:103DC000006800F0070008607047000008380240F3
:103DD000003C02400448054900680968044AC1F3F0
:103DE0008221515CC8407047100000200838024012
:103DF0000CAB00080448054900680968044AC1F38F
:103E00004231515CC8407047100000200838024021
:103E10000CAB0008154810B5006810F00C021448EF
:103E200013D01449042A0FD0082A0ED10F4C241F96
:103E30002268236802F03F025B0207D52068C0F3C6
:103E40008810A0FB010106E0084610BD2168C1F3FF
:103E50008811A1FB00010023FDF717F82168C1F3C9
:103E60000141491C4900B0FBF1F010BD0838024087
:103E70000024F400001BB7002DE9F84F04006ED0B9
:103E80002078DFF84C93C007A9F104054AD009F166
:103E900004000168C1F38101012908D00068C0F362
:103EA000810002280AD1D9F80000400206D528680E
:103EB000800337D560680028E1D033E06068B0F552
:103EC000803F10D0B0F5A02F286810D020F48030AB
:103ED0002860286820F4802028606068A8B1FFF777
:103EE000EFFD06460DE0286840F48030F4E740F42A
:103EF00080202860F7E700BFFFF7E2FD801B642801
:103F000073D828688003F7D50CE0FFF7D9FD064683
:103F100005E000BFFFF7D4FD801B6428F0D82868B7
:103F20008003F7D42078DFF8AC8280074FF0000AD6
:103F30003ED5A748001D016811F00C0F08D000689D
:103F4000C0F3810002280BD1D9F80000400207D449
:103F50002868800716D5E068012800D112E033E117
:103F6000E068B8B10120C8F80000FFF7A9FD0646D7
:103F700005E000BFFFF7A4FD801B0228C0D8286819
:103F80008007F7D52868216920F0F80040EAC100D1
:103F900028600DE0C8F800A0FFF792FD064604E097
:103FA000FFF78EFD801B02281FD828688007F7D4F2
:103FB0002078000722D5864F87486169703771B134
:103FC00001210160FFF77CFD064604E0FFF778FD64
:103FD000801B022809D838688007F7D50EE0C0F8A2
:103FE00000A0FFF76DFD064605E082E0FFF768FDE3
:103FF000801B02287DD838688007F7D420784007D6
:1040000068D5DFF8CCB100270BF13C0BDBF80000E2
:10401000C0000BD4DBF8001041F08051CBF8001049
:10402000DBF80000012700F0805000906B4E3068F4
:10403000C00510D4306840F480703060FFF740FD58
:10404000009005E0FFF73CFD0099401A022850D887
:104050003068C005F6D55E4EA0686C3601280FD0DA
:104060000528306810D020F001003060306820F062
:1040700004003060A068B8B1FFF722FD00900FE0A7
:10408000306840F00100F4E740F004003060F7E7EA
:10409000FFF716FD0099411A41F28830814266D837
:1040A00030688007F4D50EE0FFF70AFD009007E0C6
:1040B000FFF706FD0099411A41F28830814256D837
:1040C00030688007F4D42FB1DBF8001021F0805164
:1040D000CBF80010A069C8B33D49091D0968C1F3B8
:1040E000810102294AD00228504607D0C8F8600052
:1040F00000E03CE0FFF7E4FC04463BE04746C8F83C
:104100006000FFF7DDFC064605E000BFFFF7D8FCC6
:10411000801B02282BD828688001F7D4D4E9070136
:104120000843A16A2E4A490802EB0141626A41EA4A
:104130008211084394F82C1040EA0161C9F800107C
:1041400001203866FFF7BCFC044606E03EE000BFF5
:10415000FFF7B6FC001B022809D828688001F7D5B4
:1041600034E000BFFFF7ACFC001B022802D903209B
:10417000BDE8F88F28688001F4D427E00128F7D043
:10418000D9F80000E26900F4800191421CD1226A52
:1041900000F03F01914217D147F6C071626A0140B9
:1041A000B1EB821F10D1A26A4FF0FF3300F440310F
:1041B00003EB5202B1EB024F06D194F82C1000F041
:1041C0007060B0EB016F01D00120D1E70020CFE794
:1041D0000438024000004742800E47420070004011
:1041E0000000FFFF70B5040009D0606A002540B1EF
:1041F00025616561A56294F8510040B10CE0012091
:1042000070BD6068B0F5827FF4D0E561F2E784F8B4
:104210005050204600F044F8022084F851002068F5
:10422000016821F040010160A088218900F48270BA
:1042300001F404410843A18901F400610843217C91
:1042400001F002010843217D01F001010843218BA7
:1042500001F400710843217F01F03801084394F80C
:10426000201001F080010843218D01F40051084322
:1042700021680860A069042101EA104094F8241024
:1042800001F010010843216848602068C16921F4E9
:104290000061C1616565012084F85100002070BD96
:1042A0002DE9F04387B0064614216846FCF7C5FFA8
:1042B00034493068884261D133480025016841F4AF
:1042C00080510160006800F4805005902E48143839
:1042D000016841F002010160016801F002010591ED
:1042E000016841F0010101600068022400F0010052
:1042F0000590182001274FF003084FF005098DE8BD
:10430000910369462148FFF7DDFA80208DE891038B
:1043100069461F48FFF7D6FA1F4C1E484FF0C0678A
:104320002060C4E901754FF48068C4E903586561F1
:104330007812A561C4E9075020466562FFF700FACC
:1043400008B1FFF7D1F8F464A663134C1148603448
:104350004830E4E802074020A4E82101C00244F804
:104360001459A561C4E907500B4865626030FFF736
:10437000E7F908B1FFF7B8F8B464A66307B0BDE881
:10438000F083000000300140443802400004024045
:104390000000024010640240980900202DE9FF4F00
:1043A00081B01D46934604464FF001090E9EFFF76B
:1043B00087FB074694F851006168012806D0B1F5E3
:1043C000827F3CD1A168C9BB042838D1029800285B
:1043D00071D0BBF1000FFBD0002DF9D094F8500044
:1043E00001282CD04FF0010A84F850A094F8510015
:1043F000042802D0052084F851004FF00008C4F8CA
:104400005480C4F838B0E587A58702992163E58612
:10441000A586C4F84080C4F8448020680168490635
:1044200003D4016841F040010160E068B0F5006F1D
:10443000606808D0F0B3012D49D081E0FFE7022089
:1044400005B0BDE8F08F08B1012D39D1206B21688E
:104450000088C860206B801C2063E08E401EE086D0
:104460002EE02068816889070FD5E18E69B1B9F126
:10447000010F0AD1216B0988C160206B801C206369
:10448000E08E401EE0864FF0000920688168C90771
:104490000CD0E18F51B1C068A16B0880A06B801C6B
:1044A000A063E08F401EE0874FF00109FFF708FB93
:1044B000C01B01E00BE067E0B04201D3701C50D19B
:1044C000E08E0028CDD1E08F0028CAD13EE0206BDD
:1044D000216800780873206B401C2063E08E401E2A
:1044E000E0862DE02068816889070FD5E18E69B1EB
:1044F000B9F1010F0AD1216B09780173206B401CBF
:104500002063E08E401EE0864FF00009206881683D
:10451000C9070CD0E18F51B1C068A16B0870A06BC6
:10452000401CA063E08F401EE0874FF00109FFF7B9
:10453000C7FAC01BB04202D3701C01D011E086B193
:10454000E08E0028CED1E08F0028CBD13A4631460C
:10455000204603F009F850B12020606584F85080AF
:1045600012E084F851A084F85080032068E7A06826
:1045700018B92068C1688068009084F851A084F858
:104580005080606D0028F1D0012059E770477047D6
:1045900010B590F83C20012A22D0012280F83C205E
:1045A000CA688C6822F4407222434C6822F480620C
:1045B00022430C6822F4006222430C6922F48052E8
:1045C00022434C6922F400522243C969002322F499
:1045D00080420A4301684A6480F83C30002010BDE4
:1045E000022010BD70B590F83C20012A32D0012481
:1045F00080F83C40022280F83D2003685A689D689C
:1046000022F070060A6832435A60134B02689A42DD
:1046100014D0B2F1804F11D0104B9A420ED0104BF3
:104620009A420BD00F4B9A4208D00F4B9A4205D0BA
:104630000E4B9A4202D00E4B9A4204D1496825F0A3
:1046400080031943916080F83D40002180F83C10C0
:10465000084670BD022070BD00000140000400400B
:1046600000080040000C00400004014000400140F0
:104670000018004010B5040003D094F83D0010B1BC
:1046800007E0012010BD002084F83C00204600F027
:104690001FF8022084F83D00211D206803F08EF8E9
:1046A000012084F8460084F83E0084F83F0084F836
:1046B000400084F8410084F8420084F8430084F804
:1046C000440084F8450084F83D00002010BD00003F
:1046D00008B500680649884208D10648016841F4D7
:1046E00000310160006800F40030009008BD000057
:1046F000004401404438024090F83D10012901D0A7
:1047000001207047022180F83D100168CA6842F01C
:104710000102CA6000681149884214D0B0F1804F8C
:1047200011D00F4988420ED00E4988420BD00E4955
:10473000884208D00D49884205D00D49884202D0F0
:104740000C49884204D1816801F00701062903D091
:10475000016841F001010160002070470000014044
:104760000004004000080040000C0040000401402C
:10477000004001400018004070472DE9F041044618
:104780000068C66805694FF00007A90713D5B1078F
:1047900011D5F91E0161012020772068806980070A
:1047A000204602D0FFF7E8FF04E000F0C1F8204601
:1047B00000F066F92777680716D5700714D52168C9
:1047C0006FF004000861022020772068806910F4EF
:1047D000407F204602D0FFF7CFFF04E000F0A8F8AA
:1047E000204600F04DF92777280715D5300713D557
:1047F00021686FF008000861042020772068C069F4
:104800008007204602D0FFF7B7FF04E000F090F8E1
:10481000204600F035F92777E80616D5F00614D5BE
:1048200021686FF010000861082020772068C069B7
:1048300010F4407F204602D0FFF79EFF04E000F016
:1048400077F8204600F01CF92777E80708D0F00732
:1048500006D021686FF001000861204600F076F96B
:10486000280608D5300606D521686FF0800008615B
:104870002046FFF78BFE680608D5700606D521682E
:104880006FF040000861204600F067F9A8060AD5DD
:10489000B00608D521686FF0200008612046BDE809
:1048A000F041FFF774BEBDE8F081000030B587B07D
:1048B000044614216846FCF7C0FC2468174D00220A
:1048C000174802210123AC4210D1046844F01004BF
:1048D0000460006800F0100005904FF4D4408DE8AB
:1048E000070069460F48CDE9032312E00E4A9442BF
:1048F00011D1026842F020020260006800F020003E
:10490000059040208DE80B000320CDE90310694697
:104910000648FEF7D7FF07B030BD00000000014099
:1049200030380240001002400044014000140240B0
:10493000704770B5044690F83C0000260D460128EB
:104940000FD0012084F83C006AB1042A1DD0082A47
:104950002FD00C2A3FD00126002084F83C0030469E
:1049600070BD022070BD206802F0A2FF206881693E
:1049700041F0080181612068816921F004018161B1
:10498000206881692A69114311E0206802F0C0FFA4
:104990002068816941F4006181612068816921F4A6
:1049A00080618161206881692A6941EA022181610F
:1049B000D2E7206802F0E2FF2068C16941F00801F7
:1049C000C1612068C16921F00401C1612068C16929
:1049D0002A69114311E0206803F004F82068C169D6
:1049E00041F40061C1612068C16921F48061C16145
:1049F0002068C1692A6941EA0221C161ACE710B5AA
:104A0000040003D094F83D0010B107E0012010BD70
:104A1000002084F83C00204600F01EF8022084F8B4
:104A20003D00211D206802F0C9FE012084F84600E7
:104A300084F83E0084F83F0084F8400084F8410088
:104A400084F8420084F8430084F8440084F8450068
:104A500084F83D00002010BD08B500680649884272
:104A600008D10648016841F001010160006800F0CA
:104A70000100009008BD00000000014044380240E1
:104A80007047000010B50446022249B104290ED037
:104A9000082913D094F84100012816D0012010BD38
:104AA00094F83E000128F9D184F83E200FE094F8F4
:104AB0003F000128F2D184F83F2008E094F840003C
:104AC0000128EBD184F8402001E084F84120012244
:104AD000206802F0DFFE16492068164A884201D09D
:104AE000904203D1436C43F40043436420688842FE
:104AF00013D0B0F1804F10D00F4988420DD00F492C
:104B000088420AD00E49884207D0904205D00D490C
:104B1000884202D00C49884204D1816801F0070123
:104B2000062903D0016841F001010160002010BD99
:104B30000000014000040140000400400008004063
:104B4000000C004000400140001800400068B0F137
:104B5000804F01D1FEF7BABF70477047704710B55C
:104B600004460068406994F84110C0F3C010212940
:104B700011D180B12068143050E8001F21F080016D
:104B800040E80012002AF5D1A06B08B1FEF7ADFC99
:104B9000204603F00AF82068406994F84210C0F3F8
:104BA0008010222911D180B12068143050E8001FF4
:104BB00021F0400140E80012002AF5D1E06B08B175
:104BC000FEF793FC204602F0C9FF002010BD70479D
:104BD000F8B5016804460868CA684B6910F00F0F01
:104BE0004FF0000559D003F0010602F490773743E7
:104BF00065D0C10705D0D10503D5616C41F0010135
:104C00006164410705D5D90703D0616C41F0020109
:104C10006164810705D5D90703D0616C41F00401B7
:104C20006164010707D502F02001314303D0616CB4
:104C300041F008016164616C00293AD0800604D516
:104C4000900602D5204602F0BEFF20684069616CE4
:104C5000C0F38010090700D460B3204602F07EFF45
:104C600020684069400621D52068143050E8001FB4
:104C700021F0400140E80012002AF5D1E06BA8B114
:104C80006E490165E06BFEF779FC002811D0E06BFE
:104C9000016D01B0BDE8F040084783060FD59306CB
:104CA0000DD52046BDE8F84002F08DBF2046FFF745
:104CB0008EFFF8BD2046FFF78AFF6564F8BD266BBE
:104CC0002023012E7DD1C6067BD5D60679D508686E
:104CD0004868009048694FF00206400641D5E16BF4
:104CE000086840680004000CE8D0A28D8242E5D933
:104CF000E085C869B0F5807F2DD020680C3050E881
:104D0000001F21F4807140E80012002AF5D12068CC
:104D1000143050E8001F21F0010140E80012002A81
:104D2000F5D12068143050E8001F21F0400140E820
:104D30000012002AF5D184F84230256320680C3037
:104D400050E8001F21F0100140E80012002AF5D1C0
:104D5000E06BFEF7CAFB6663A08DE18D401A81B25D
:104D60002AE0A08DE18D401A81B2E08D0028A5D007
:104D70000029A3D022680C3252E8000F20F4907072
:104D800042E80007002FF5D12068143050E8002FCA
:104D900022F0010240E80027002FF5D184F84230CC
:104DA000256320680C3050E8002F22F0100240E804
:104DB0000023002BF5D166632046FFF7CFFEF8BD38
:104DC000FFE705062BD5150629D594F841002128C3
:104DD000F5D1A068B0F5805F01D12069B0B1206A3B
:104DE000411C2162216800784860E08C401E00046C
:104DF000000CE084E3D12068C16821F08001C1602B
:104E00002068C16841F04001C160D8E7206A00888D
:104E1000C0F308004860206A801C2062E5E7400675
:104E2000CDD55006CBD5CA68204622F04002CA60D4
:104E300084F8413000F02AF9C1E700005F7A0008E9
:104E400070B5040004D094F84100002510B106E0CC
:104E5000012070BD84F84050204600F023F8242043
:104E600084F841002068C16821F40051C1602046E7
:104E700002F00AFF2068016921F490410161206875
:104E8000416921F02A0141612068C16841F4005163
:104E9000C1606564202084F8410084F842006563A5
:104EA000002070BDF0B587B0054614216846FCF7B8
:104EB000C4F93E4B296800243D48022603270722F7
:104EC000994231D13A49254614310B6843F0100319
:104ED0000B60096801F010010591016841F00201C1
:104EE0000160016801F002010591016841F00101D2
:104EF00001600068029500F0010005908020CDE976
:104F00000006CDE90372144669462A48FEF7DAFC2A
:104F10003002CDE900060295CDE9037469462648C2
:104F2000FEF7D0FC07B0F0BD244B9942FAD12049DE
:104F300010310B6843F480230B60096801F4802171
:104F40000591016841F0040101600068029400F0DD
:104F5000040005904FF44060CDE90006CDE90372EE
:104F600069461748FEF7AEFC174E164830604FF002
:104F70000060C6E901044014C6E9034074614FF4BF
:104F80004030B461C6E9074030467462FEF7D8FB92
:104F900008B1FEF7A9FAEE63002205212720B563C8
:104FA000FEF72CFE2720FEF71BFEBBE7001001409A
:104FB0003038024000040240000002400048004037
:104FC0000008024028600240780B002090F8423030
:104FD000202B01D00220704721B11AB100230363B6
:104FE00002F0D8BE01207047704770472DE9F843A2
:104FF000044690F84100984616460D46202802D0F7
:105000000220BDE8F88385B17EB1002060642120D4
:1050100084F84100FEF754FDA6848146E684A0682A
:105020002027B0F5805F02D003E00120E9E7206986
:1050300010B12E4600250EE000260CE0802120460F
:1050400002F048FFA8B9C6B116F8010B2168486004
:10505000E08C401EE084E08C4B464FF00002CDF81F
:1050600000800028EAD14FF04001204602F032FFD4
:1050700040B184F841700320C3E735F8020BC0F358
:105080000800E3E784F841700020BAE770470000A9
:1050900070B5044600203C4D2074A27B28886168CE
:1050A0004243D4F8F400FCF76CF8A17B2888414314
:1050B0006068FCF7C2F8A07B10FB00F12888414330
:1050C000D4F81801FCF7B9F8207BA17B10FB01F1A3
:1050D00028884143D4F80C01FCF7AFF800202BE0FE
:1050E000D4F8F41001EB800292ED000AB5EEC00A8C
:1050F000F1EE10FA1ED0227C01EB820181ED000A54
:10510000227C616A8854A169227B01EB8001237CA7
:1051100091ED000A6169095C12FB03116FF0030253
:1051200002EB8101D4F80C21114481ED000A217CAD
:10513000491C2174401CC0B2A17B8142D0D8002000
:1051400010E0636AE2691B5C02EB830292ED000AE5
:1051500010FB0101D4F81821401C02EB8101C0B200
:1051600081ED000A217C8142EBD8C8B224F8780F87
:1051700014F86C0C6080208161812183618320841C
:10518000618424F8301C70BD24010020FEE700007B
:10519000F0B58D4C0F462DED068B054687B01646B3
:1051A000D0ED040A94ED050A884830EEC00AB0EE4E
:1051B000C00A10EE101A814219DC95ED050A94ED33
:1051C000061A30EE410AB0EEC00A10EE101A814203
:1051D0000DDC95ED060A94ED071A30EE410AB0EEAB
:1051E000C00A10EE101A814201DC2878F0B39FED5E
:1051F000789A80EE890AFBF7C7F8F0EE400AF0EEE5
:10520000609AD5ED050A80EE890AFBF7BDF8D5ED69
:10521000060AF0EE401A80EE890AB0EE61AAFBF7AA
:10522000B3F8D5ED040AF0EE40AA80EE890AFBF748
:10523000E7F8F0EE400AB0EE608AD5ED050A80EEA0
:10524000890AFBF7DDF8D5ED060AF0EE408A80EE1C
:10525000890AFBF7D5F829EEAA2A68EE280AB0EEEB
:10526000401AB0EE420A00EE810A00E02BE084ED25
:10527000080A2AEE080A6AEE880A002084ED090A64
:1052800029EE810A00EEE80A84ED0A0A29EEA80A4E
:1052900020EE010A0AEEC80A84ED0B0A29EE8A0AFA
:1052A00084ED0C0A28EE410A02EE680A84ED0D0A2C
:1052B0002AEE410A84ED0E0A2AEE2A0AC4ED0F8A6C
:1052C00084ED100A287000204FEA0D0107EB8002E0
:1052D00092ED000A05EB8002D2ED010A01EB80029B
:1052E000401C20EE200AC0B2032882ED000AEDD354
:1052F0009DED000AD4ED085A9DED011A94ED094A7E
:1053000020EE252ADDED020AD4ED0A1A002004EE73
:10531000012A03A901EEA02A87ED002A94ED0B3A99
:10532000D4ED0C2A94ED0D2A60EE033A42EE813A58
:1053300042EE203AC7ED013AD4ED0E3AD4ED0F4AD1
:1053400094ED105A20EE230A04EE810A05EE200A9D
:1053500087ED020A06EB800292ED000A01EB800263
:10536000401CC0B282ED000A0328F3D39DED031A5E
:10537000DDED040A9DED050A61EE255A44EE205A42
:1053800041EE805A61EE031A21EE231A42EEA01A72
:1053900004EEA01AC6ED005A42EE001A05EE001AFD
:1053A000C6ED011A86ED021A95ED040A84ED050A90
:1053B00095ED050A84ED060A95ED060A84ED070AC7
:1053C00007B0BDEC068BF0BD140000206F12833ACD
:1053D000E12E654210B504462DED048BD0F8EC00AB
:1053E000D0ED009A90ED019AD0ED028A29EEA90A3B
:1053F00090ED038A09EE090A08EEA80A08EE080AE9
:1054000003F0C4FA5FF00000D4F8EC1001EB800167
:10541000401CD1ED000AC0B2042860EE800AC1ED44
:10542000000AF1D33E48D4F8001190ED6F0A60EE07
:10543000090AB6EE000A60EE800AC1ED040AD0ED5A
:105440006F0AD4F8001160EEA80A60EE800AC1ED80
:10545000050AD0ED6F0AD4F8001120EEA91AFEEE6D
:10546000000A21EE201A81ED0A1A90ED6F1AD4F885
:10547000001121EE081A21EE001A81ED0B1A90EDB1
:105480006F1AD4F8001121EE081A21EE201A81EDCE
:10549000101A90ED6F1AD4F8001121EE291A21EE9E
:1054A000201A81ED111A90ED6F1AD4F8001121EE37
:1054B000281A21EE000A81ED160A90ED6F0AD4F841
:1054C000001120EE090A20EE200A81ED170AD4F817
:1054D000F810D0ED740A91ED1C0A80EE201A81EDCF
:1054E0001C1AD4F8F810D0ED740A0E4891ED230A76
:1054F00080EE201A9FED0C0A81ED231AD4F8F810E3
:105500000A6F824201DD81ED1C0AD4F8F810D1F84F
:105510008C20824201DD81ED230ABDEC048B10BD9D
:10552000600E002000401C4600401C4670B52C4C0C
:1055300001252DED028B04F5D8702570B7EE008A99
:1055400080EC030A00209FED270A84ED730A84F89B
:105550003801C4E95000C4E9520011EE900AB0F1DC
:105560007E5F01DDF0EE481AC4ED741A84ED642A02
:10557000032300220621201D00F00EFE1A4B0122FB
:105580001146A3F10800FBF709F854F8EC0F9FED62
:10559000170A902280ED008A54F86409184980EDBA
:1055A000010A606E80ED020A606E80ED030A104809
:1055B000A0641048E064104820651048606504F855
:1055C0005A5C04F8595CE06FFBF7DBFD606F9022DA
:1055D000BDEC028B0B49BDE87040FBF7D2BD00006B
:1055E000600E002077CC2B32281000200000000035
:1055F00009560008D55300083D560008155B000801
:1056000044AB00088001002010B50446902254F8F5
:10561000F81F0848FBF7B5FD48220748616AFBF709
:10562000B0FD054861694822BDE810404830FBF7ED
:10563000A8BD0000800100204010002070B5044685
:10564000B0EE000A54F8EC0F2B4DD0ED000A60EEDE
:10565000800AC5ED090AD0ED010A60EE800AC5EDA9
:105660000A0AD0ED020A60EE800AC5ED0B0AD0ED01
:10567000030A20EE800A85ED0C0A14F8DE0C14F8FB
:10568000E01C10FB01F11D4800884143206AFBF734
:10569000D4FDD5ED0B1A206AB1EE612A80ED002A07
:1056A000206AD5ED0C0AC0ED010A95ED090A206AC1
:1056B000B1EE401A80ED021A206A95ED0A1A80EDCB
:1056C000031A206A80ED061A206A80ED070A206A14
:1056D000C0ED080A206AC0ED091A206A80ED0C0AA4
:1056E000206AB1EE410A80ED0D0A206A80ED0E2A93
:1056F000206AC0ED0F0A70BD3C010020240100208B
:1057000070B5F74C2DED088BB0EE438AF0EE629A3F
:10571000B0EE42AAF0EE61AA2078B0EE419AB0EE67
:1057200060BAF0EE40BADFEDEF8A58B9B0EE682A01
:10573000F7EE001A9FEDEC1ADFEDEC0AB2EE040A68
:10574000FFF7F4FE84ED6F8A94ED580AE84D90223D
:105750007BEEC00AE749C4ED5B0A94ED590A3BEEC3
:10576000401A84ED5C1A94ED5A0A79EE401AB6EEAE
:10577000000A60EE800AC4ED5D1A60EE880AC5ED8D
:10578000000A61EE000A21EE800A60EE880A20EE2F
:10579000080AC5ED010A85ED020AD4F8040104F5F2
:1057A0008274FBF7EEFC95ED000A2068B1EE402A0A
:1057B00080ED012A95ED011A2068F1EE412AC0ED35
:1057C000022AD5ED021A2068F1EE610AC0ED030A43
:1057D000206880ED060A2068C0ED081A2068C0ED38
:1057E000092A206880ED0C1A2068C0ED0D0A206897
:1057F00080ED0F0A2068C0ED121A206880ED131AA0
:1058000054F8440B80ED142A74E85201084305D182
:10581000C4ED5EAA84ED5FAAC4ED609A94ED5E0AC1
:10582000D4ED640A94ED6F1A20EE202A31EE200A9E
:10583000C2EE001A21EE2A2AC2EE002A31EEA22A76
:1058400084ED5E2AD4ED5F1A61EEA02AC2EE801AC2
:1058500061EE0A2A21EE291A82EE803A71EE831A4D
:10586000C4ED5F1AD4ED602A62EEA02AC2EE800A6F
:10587000C1EE002A22EE020A01EEA10A70EEA20A8F
:10588000C4ED600A00EEA00A03F080F885ED030A7B
:105890005FF0000004EB8001D1ED5E0AA16801EB2E
:1058A000800160EE800A401CC0B2C1ED000A0328EE
:1058B000F0D394ED5B0AD4ED5C0A20EE000A00EE12
:1058C000A00AD4ED5D0A00EEA00A03F05FF8B7EE7F
:1058D000008A8949C8EE000AC4ED650A95ED031AED
:1058E00010EE900A88EE010A884284ED660A0BDA0F
:1058F00010EE100A8149884206DD10EE100A804938
:10590000884201DA012000E0002084F8390194ED9A
:105910006C0AD4ED6F0AD4F8180120EE200A80ED4D
:10592000000A94ED6C0AD4ED6F0AD4F8180120EE49
:10593000200A80ED070A94ED6C0AD4ED6F0AD4F8C2
:10594000180120EE200A80ED0E0A94ED6C0AD4EDC9
:105950006F0AD4F8180120EE200A80ED150A94EDA4
:105960006D0AD4ED6F0AD4F8180120EE200A80EDFC
:105970001C0A94ED6D0AD4ED6F0AD4F8180120EEDC
:10598000200A80ED230AD4F81C0194ED6E0A80ED04
:10599000000AD4F81C0194ED6E0A80ED040AD4F8D4
:1059A0001C0194ED6E0A80ED080A201D00F0DEFE59
:1059B000606890ED001A84ED541A90ED010A61EED2
:1059C000012A84ED550AD0ED021AC4ED561A90ED65
:1059D000032A40EE002A84ED572AD0ED040A21EE76
:1059E000021AC4ED580AD0ED050AC4ED590A00EEBA
:1059F000211AC4ED5A8AF0EE008AF0EE480A52EEFF
:105A0000A80A21EE280A02F025FC9FED3E9AF0EE4E
:105A1000480A20EE090A84ED6A0A94ED541A94EDBE
:105A2000570A61EE011A40EE001A51EEA80AD4EDB1
:105A3000551A21EE211AD4ED561A01EE801A21EEE4
:105A4000280A02F007FC20EE090A84ED690A94EDA9
:105A5000550AD4ED570A94ED561A20EE200AD4EDDB
:105A6000540A00EEC10AF8EE000A20EE200A02F005
:105A70005BFB20EE090A244984ED680A94ED6A0A6A
:105A8000D4ED760A70EE600A10EE900A884203DDCB
:105A9000B4F8D401401E07E010EE900A1B4988427A
:105AA00004D9B4F8D401401CA4F8D401B4F9D40149
:105AB000DFED171A00EE900AB8EEE01AF0EE400A99
:105AC00041EE210AC4ED6B0A84ED760AF4E9520135
:105AD000401C41F10001C4E90001BDEC088B70BD20
